:100000000C942A000C943C000C943C000C943C0092
:100010000C943C000C943C000C94B9000C943C00F3
:100020000C943C000C943C000C943C000C943C0060
:100030000C943C000C943C000C943C000C943C0050
:100040000C943C000C943C000C943C000C943C0040
:100050000C943C0011241FBECFE5D4E0DEBFCDBF21
:1000600020E0A0E6B0E001C01D92A836B207E1F79B
:100070000E94AA000C94BD010C940000FC01808138
:10008000823449F018F4813489F40EC0833431F09D
:10009000843461F406C0A7E3B0E008C0A4E3B0E094
:1000A00005C0A1E3B0E002C0AAE3B0E08281811103
:1000B0000DC081E090E0018002C0880F991F0A9472
:1000C000E2F780959C9189238C930895813059F4AF
:1000D00081E090E0018002C0880F991F0A94E2F746
:1000E0009C91892B8C930895FC018081823449F086
:1000F00018F4813489F40EC0833431F0843461F40F
:1001000006C0A8E3B0E008C0A5E3B0E005C0A2E3E4
:10011000B0E002C0ABE3B0E08381813061F481E004
:1001200090E0018002C0880F991F0A94E2F79C9129
:10013000892B8C93089581110CC081E090E001809F
:1001400002C0880F991F0A94E2F780959C91892339
:100150008C9308950E94EE008FEF8ABB1BBA7894AF
:100160006AE070E080E094E00E944A010E94200171
:10017000FFCF1F920F920FB60F9211242F933F9330
:100180004F935F936F937F938F939F93AF93BF939F
:10019000EF93FF930E943C01823019F40E942E01DC
:1001A0000CC00E943C01833041F40E9413016AE0BC
:1001B00070E080E090E00E944A01FF91EF91BF91D2
:1001C000AF919F918F917F916F915F914F913F91EF
:1001D0002F910F900FBE0F901F90189583E480937E
:1001E00060008093640082E08093610083E08093EC
:1001F000650081E080936200809366001092630046
:100200001092670080E690E00E943E0084E690E055
:100210000E943E0080E690E00E94740084E690E038
:100220000E9474000895109263001092670080E6A7
:1002300090E00E94740084E690E00E9474000895AB
:1002400081E0809363001092670080E690E00E9456
:10025000740084E690E00E94740008951092630098
:1002600081E08093670080E690E00E94740084E65D
:1002700090E00E947400089580916300811106C08F
:1002800080916700882321F083E0089582E008953B
:1002900080E008958D9A95982FB520682FBD2FB5D1
:1002A0002F7B2FBD2FB528602FBD2FB52C7F2FBDE5
:1002B0002EB528602EBD2EB52F7E2EBD8034910523
:1002C00031F138F48130910561F0089709F040C0B0
:1002D00013C0811521E0920729F181159440C1F5E1
:1002E0002CC08EB5897F8EBD8EB581608EBD80E4B9
:1002F00092E4AFE0B0E032C08EB58A7F8EBD8EB59D
:1003000082608EBD88E498EEA1E0B0E027C08EB593
:100310008B7F8EBD8EB583608EBD89E09DE3A0E0AE
:10032000B0E01CC08EB58C7F8EBD8EB584608EBD56
:1003300082E49FE0A0E0B0E011C08EB58D7F8EBD5D
:100340008EB585608EBD80ED93E0A0E0B0E006C084
:100350008EB5887F8EBD80E090E0DC011DBC1CBCAA
:10036000689F9001699F300D789F300D11243BBD2F
:0E0370002ABD89B7806189BF0895F894FFCF38
:00000001FF
