:100000000C9472000C948F000C948F000C948F0051
:100010000C948F000C948F000C948F000C948F0024
:100020000C948F000C948F000C948F000C948F0014
:100030000C948F000C948F000C948F000C948F0004
:100040000C948F000C948F000C948F000C948F00F4
:100050000C948F00A900A000A300A600AB00AB0089
:10006000AB00AB00AB00AB00AB00AB00AB00AB0038
:10007000AB00AB00AB00AB00AB00AB00AB00AB0028
:10008000AB00AB00AB00AB00AB00AB00AB00AB0018
:10009000AB00AB00A900A000A300A600E300DA00BB
:1000A000DD00E000E500E500E500E500E500E50035
:1000B000E500E500E500E500E500E500E500E50018
:1000C000E500E500E500E500E500E500E500E50008
:1000D000E500E500E500E500E500E500E300DA0005
:1000E000DD00E00011241FBECFE5D4E0DEBFCDBFB0
:1000F00011E0A0E6B0E0E4E1FBE002C005900D9263
:10010000A439B107D9F721E0A4E9B1E001C01D92FB
:10011000A93BB207E1F70E94DF010C9488050C941B
:100120000000CF93DF93EC01488150E04154510926
:100130004432510580F4465D5F4FFA010C9460052E
:10014000A7E3B0E008C0A4E3B0E005C0A1E3B0E0DD
:1001500002C0AAE3B0E08A81813061F481E090E0DE
:10016000098002C0880F991F0A94E2F79C91892B9D
:100170008C930EC081110CC081E090E0098002C018
:10018000880F991F0A94E2F780959C9189238C939C
:10019000DF91CF910895CF93DF93EC01488150E038
:1001A000415451094432510580F4425B5F4FFA01DA
:1001B0000C946005A8E3B0E008C0A5E3B0E005C07A
:1001C000A2E3B0E002C0ABE3B0E08B81813061F428
:1001D00081E090E0098002C0880F991F0A94E2F73D
:1001E0009C91892B8C930EC081110CC081E090E012
:1001F000098002C0880F991F0A94E2F780959C91AC
:1002000089238C93DF91CF9108950F931F93CF9300
:10021000DF93C3EBD1E008EB11E00E945503899313
:100220008A3211F0833219F40E946B0407C0682FE0
:1002300070E080E090E04AE00E947E042FEF80E7CB
:1002400092E0215080409040E1F700C0000080E142
:100250000E943B048AE20E946B042FEF80E792E049
:10026000215080409040E1F700C00000C017D10746
:10027000A1F6DF91CF911F910F9108950F931F93D6
:10028000CF93DF932FEF81EE94E021508040904098
:10029000E1F700C00000C3EBD1E008EB11E0899169
:1002A0000E9439052FEF80E792E021508040904076
:1002B000E1F700C00000C017D10789F7DF91CF91A7
:1002C0001F910F9108950F931F93CF93DF9387E4AE
:1002D0000E9439052FEF80E792E021508040904046
:1002E000E1F700C00000C3EBD1E008EB11E00E9491
:1002F0003D058993C017D107D1F7DF91CF911F91A9
:100300000F9108950F931F93CF93DF930E94630182
:10031000C3EBD1E008EB11E089918A3211F083320E
:1003200019F40E946B0407C0682F70E080E090E031
:100330004AE00E947E04C017D10771F7DF91CF9188
:100340001F910F9108950E943D05813049F50E944B
:100350002B0581E690E00E946F042FEF84E39CE080
:10036000215080409040E1F700C000000E942B0522
:1003700082E790E00E946F0442E850E064E081E090
:100380000E9420052FEF81EE94E0215080409040A4
:10039000E1F700C000000E9405010E943E0108959F
:1003A00081110CC00E942B0589E890E00E946F0427
:1003B00048E950E060E081E00E94200508958CE06B
:1003C0000E943F040E942F052FE788E391E021500F
:1003D00080409040E1F700C000000E94A301C3E00C
:1003E0000E942B0587EA90E00E946F0447EB50E0E3
:1003F00060E081E00E9420050E9455038093B801CF
:10040000833221F08A3209F49EC033C10E942B0549
:1004100087EC90E00E946F0442E850E062E081E0E7
:100420000E9420052FEF81EE94E021508040904003
:10043000E1F700C000000E94050183E40E94390535
:100440000E943E010E943D05809394018130E9F5B0
:10045000C09360000E942B0589ED90E00E946F041C
:1004600042E850E062E081E00E9420052FEF81EE3B
:1004700094E0215080409040E1F700C000000E94CD
:10048000050183E50E9439052FEF80E792E02150B6
:1004900080409040E1F700C000000E943E010E94B1
:1004A0002B058AEE90E00E946F0464E081E00E94D8
:1004B00010050E9482012FEF84E39CE021508040D0
:1004C0009040E1F700C000008BCF811189CF80916F
:1004D0006000815080936000811115C0C09360005E
:1004E0000E942B058AEF90E00E946F0486E40E9430
:1004F00039052FEF81EE94E0215080409040E1F7E4
:1005000000C000006DCF0E942B0588E091E00E94A2
:100510006F0460E081E00E9410056091600070E06F
:1005200080E090E04AE00E947E0489E191E00E9430
:100530006F042FEF84E39CE0215080409040E1F76E
:1005400000C000004DCF0E942B0587EC90E00E9478
:100550006F0442E850E062E081E00E9420052FEF46
:1005600081EE94E0215080409040E1F700C000000F
:100570000E94050183E40E9439050E943E010E9409
:100580003D05809394018130B1F5C09360000E94D5
:100590002B0585E50E94390586E291E00E946F04F3
:1005A00047E351E060E081E00E9420052FEF81E108
:1005B0009AE7215080409040E1F700C000008CE4B1
:1005C0000E9439050E942B0584E491E00E946F048B
:1005D00043E551E060E081E00E9420052FEF81E1DA
:1005E0009AE7215080409040E1F700C000008DE480
:1005F0000E943905F5CE8111F3CE809160008150C3
:1006000080936000811115C0C09360000E942B058B
:100610008AEF90E00E946F0486E40E9439052FEF74
:1006200081EE94E0215080409040E1F700C000004E
:10063000D7CE0E942B0588E091E00E946F0460E015
:1006400081E00E9410056091600070E080E090E021
:100650004AE00E947E0489E191E00E946F042FEF3E
:1006600084E39CE0215080409040E1F700C000000E
:10067000B7CE0E942B058EE591E00E946F042FEF0C
:1006800084E39CE0215080409040E1F700C00000EE
:10069000A7CE8B3041F08C3021F08A3029F48AE2E9
:1006A000089583E2089580E0089580E060E170E0BD
:1006B000F1E0E0E0A0E09B01082E02C0220F331F12
:1006C0000A94E2F727BB209528BBB09B0EC02F2FC2
:1006D0003E2F922F46B350E0022E02C0559547950B
:1006E0000A94E2F740FD0AC001C090E08F5F292F15
:1006F000220F920F890F0E94490308952F5F3F4FE9
:100700002430310531F78F5F8330A8F28A2FD3CFA1
:10071000E0919601F0E0EE0FFF1FEE0FFF1FED5589
:10072000FE4F8083618381E082831382CF010E9428
:100730009100809196018F5F809396010895E091DA
:100740009501F0E0EE0FFF1FEE0FFF1FE956FE4F81
:100750008083618381E082831382CF010E949100B4
:10076000809195018F5F809395010895CF92DF92DC
:10077000EF92FF920F931F93CF93DF93E82E6111B7
:1007800007C010929A0187E991E00E94CB0007C050
:1007900081E080939A0187E991E00E94CB0010925A
:1007A0009E018BE991E00E94CB00CE2CC694C694AA
:1007B000C694C694D12C06EA11E0C0E0D0E09601C0
:1007C0000C2E02C0359527950A94E2F72170F801A6
:1007D0002083C80103970E94CB0021960C5F1F4F16
:1007E000C430D10561F781E08093A2018FE991E0E7
:1007F0000E94CB008FEC97E00197F1F700C000005A
:100800001092A2018FE991E00E94CB0006EA11E06C
:10081000C0E0D0E0F12C97010C2E02C03595279551
:100820000A94E2F72170F8012083C80103970E941F
:10083000CB0021960C5F1F4FC430D10561F781E0DA
:100840008093A2018FE991E00E94CB008FEC97E0AA
:100850000197F1F700C000001092A2018FE991E02A
:100860000E94CB00DF91CF911F910F91FF90EF90ED
:10087000DF90CF90089560E00E94B6030895CF9373
:10088000C82F64E083E40E94880365E083E40E944B
:10089000880366E083E40E94880367E083E40E94A3
:1008A000880360E083E40E949F0361E083E40E9488
:1008B0009F0362E083E40E949F0382E00E943B0466
:1008C00088E20E943B048C2F0E943B0481E00E943E
:1008D0003B04CF91089561E00E94B6030895CF9341
:1008E000DF93EC018881882331F021960E946B040C
:1008F00089918111FBCFDF91CF9108954F925F9243
:100900006F927F92AF92BF92CF92DF92EF92FF925F
:100910000F931F93CF93DF93CDB7DEB764970FB6D6
:10092000F894DEBF0FBECDBF698B7A8B8B8B9C8B0F
:100930008EEF840F823210F0198259C089899A890A
:10094000AB89BC89BB233CF4B095A095909581956B
:100950009F4FAF4FBF4FBC01CD018E010F5F1F4FA7
:10096000442E512C612C712C580178012FEFE21A82
:10097000F20A6701A30192010E944105FB01E259BD
:10098000FE4F8081D8018C93622F732F842F952F77
:10099000611571058105910511F08701E5CF098980
:1009A0001A892B893C89332344F4650112E0C10E76
:1009B000D11C8DE2D50111968C93F60110829E0117
:1009C0002F5F3F4FC60101972817390780F4C901EF
:1009D000A9012291DA013D91AD013083DC012D9313
:1009E000CD019F01215031094217530790F3CE01E9
:1009F00001960E946F0464960FB6F894DEBF0FBE96
:100A0000CDBFDF91CF911F910F91FF90EF90DF90BD
:100A1000CF90BF90AF907F906F905F904F90089570
:100A2000823031F0833031F0813029F4605C03C0D2
:100A3000605F01C0605B862F80680E943B04089560
:100A4000CF93DF93EA010E941005CE010E946F044C
:100A5000DF91CF91089581E00E943B04089582E0E8
:100A60008BB988E18AB986E880BD10BC8CE089B971
:100A700008955D9BFECF8CB908955F9BFECF8CB12E
:100A80000895052E97FB1EF400940E94580557FD0B
:100A900007D00E94660507FC03D04EF40C9458055D
:100AA00050954095309521953F4F4F4F5F4F08959A
:100AB00090958095709561957F4F8F4F9F4F0895CA
:100AC000EE0FFF1F0590F491E02D0994A1E21A2E7C
:100AD000AA1BBB1BFD010DC0AA1FBB1FEE1FFF1FE2
:100AE000A217B307E407F50720F0A21BB30BE40B32
:100AF000F50B661F771F881F991F1A9469F7609579
:100B00007095809590959B01AC01BD01CF01089532
:040B1000F894FFCF87
:100B14000348656C6C6F204D722E2041796D616EB7
:100B24002100496E697469616C697A696E67205540
:100B34007200506173733A2000202057656C636F14
:100B44006D65206261636B002020204D722E204170
:100B5400796D616E212000446F6F72206973204C9F
:100B64006F636B65642100233A4368616E67652097
:100B74002A3A4F70656E00506C7A20456E74657227
:100B84002043757272656E740056616C69642C2022
:100B9400456E746572204E65770050415353574F2C
:100BA400524420534156454421002020496E766129
:100BB4006C69642E2E2E2100496E76616C69642165
:100BC4002C20596F7527766500204D6F726520546F
:100BD40072696573210056616C6964212C204D4F44
:100BE400544F522049530020554E4C4F434B494ECD
:100BF400472E2E00446F6E652C204D4F544F5220CB
:100C0400495300204C4F434B494E472E2E00496E0A
:100C140076616C6964204F7074696F6E21003031A5
:100C240032333435363738396162636465666768F0
:100C3400696A6B6C6D6E6F707172737475767778A8
:040C4400797A0000B9
:00000001FF
