S00C0000454355322E7372656309
S11300000C943D000C945A000C945A000C945A0021
S11300100C945A000C945A000C945A000C945A00F4
S11300200C945A000C945A000C945A000C945A00E4
S11300300C945A000C945A000C945A000C945A00D4
S11300400C945A000C945A000C945A000C945A00C4
S11300500C945A0023011601160163015001160184
S11300601601160116015D01600116011601160143
S113007016011601310116015A0111241FBECFE5E4
S1130080D4E0DEBFCDBF10E0A0E6B0E0E8E5F4E0E8
S113009002C005900D92A236B107D9F720E0A2E67E
S11300A0B0E001C01D92AC36B207E1F70E94B9007E
S11300B00C942A020C94000067E670E090E00E9421
S11300C09F01809167008F3F21F481E0809360005D
S11300D002C010926000809160000895CF93DF9376
S11300E0C5E1D0E0BE01635B7F4FCE010E949F015A
S11300F02FE788E391E0215080409040E1F700C071
S113010000002196CA31D10569F7DF91CF91089596
S113011090916200809167009817B9F004C0319102
S11301202D91321719F010926100089540936100E7
S11301302FE738E351E0215030405040E1F700C050
S11301400000E817F90759F7089581E080936100EA
S11301508FE798E321E0815090402040E1F700C010
S11301600000E3E6F0E0A8E6B0E087E690E041E0D6
S1130170D6CFB89AC0988AB383608ABB8BB38C7F7E
S11301808BBB0E9412020E9465012FEF84E39CE066
S1130190215080409040E1F700C0000085E10E94BA
S11301A05C000E941C02809160008130D9F402E658
S11301B010E0C5E1D0E00E942002F80181938F0194
S11301C0682FCE010E946801FFE728E381E0F15027
S11301D020408040E1F700C000002196CA31D105DB
S11301E051F709C09FEFE1EEF4E09150E040F04098
S11301F0E1F700C000000E946E000F2EF2E6CF2E41
S1130200F0E0DF2EF02D07E610E00F2EF5E17F2E53
S1130210F02D612C0F2EF7E6AF2EF0E0BF2EF02D5F
S11302200F2EFCE6EF2EF0E0FF2EF02D0E942002B0
S113023090E0FC01E354F109E331F105B8F7E65D20
S1130240FF4F0C942402E5010E9420028993CE15ED
S1130250DF05D1F70E948800809161000E941C0292
S1130260E5CFE6010E9420028993C017D107D1F798
S1130270E601872C962C6991C4010E9468012FE73E
S113028088E391E0215080409040E1F700C00000F5
S1130290EFEF8E1A9E0AFAE18F16910461F7C6CF2A
S11302A00E946E00E60189910E941C02C017D107CA
S11302B0D1F7BCCFD89AD998B9CFD898D99AB6CF14
S11302C0D89AD99AB3CFC09AB1CF0E94F1010895B8
S11302D01F93CF93DF93EC01162F0E94F8010E9425
S11302E00F02883009F5CE0188279770880F892F6F
S11302F0881F990B9195806A0E9401020E940F0247
S11303008831A1F48C2F0E9401020E940F028832CE
S113031079F4812F0E9401020E940F02883251F465
S11303200E94FE0181E007C080E005C080E003C0B8
S113033080E001C080E0DF91CF911F910895EF929A
S1130340FF920F931F93CF93DF93EC018B010E94D5
S1130350F8010E940F02883091F57E01EE2487E0B7
S1130360F822EE0CEF2CEE1CFF08F1948E2D806A1F
S11303700E9401020E940F02883119F58C2F0E94FD
S113038001020E940F028832F1F40E94F8010E94D7
S11303900F028031D1F48E2D816A0E9401020E94E5
S11303A00F028034A1F40E940802F80180830E94A5
S11303B00F02883571F40E94FE0181E00BC080E0D9
S11303C009C080E007C080E005C080E003C080E091
S11303D001C080E0DF91CF911F910F91FF90EF90CA
S11303E0089582E080B911B882B984E086BF089587
S11303F084EA86BF06B607FEFDCF089584E986BF6A
S1130400089583B984E886BF06B607FEFDCF089534
S113041084E886BF06B607FEFDCF83B1089581B197
S1130420887F089582E08BB988E18AB986E880BD27
S113043010BC8CE089B908955D9BFECF8CB90895FA
S11304405F9BFECF8CB10895EE0FFF1F0590F491D2
S10B0450E02D0994F894FFCF9C
S105045801019C
S9030000FC
